{
  "_format": "hh-sol-artifact-1",
  "contractName": "SyNox",
  "sourceName": "contracts/SyNox.sol",
  "abi": [
    {
      "inputs": [
        {
          "internalType": "address",
          "name": "_nftContract",
          "type": "address"
        }
      ],
      "stateMutability": "nonpayable",
      "type": "constructor"
    },
    {
      "inputs": [
        {
          "internalType": "address",
          "name": "owner",
          "type": "address"
        }
      ],
      "name": "OwnableInvalidOwner",
      "type": "error"
    },
    {
      "inputs": [
        {
          "internalType": "address",
          "name": "account",
          "type": "address"
        }
      ],
      "name": "OwnableUnauthorizedAccount",
      "type": "error"
    },
    {
      "anonymous": false,
      "inputs": [
        {
          "indexed": true,
          "internalType": "uint256",
          "name": "id",
          "type": "uint256"
        },
        {
          "indexed": false,
          "internalType": "string",
          "name": "title",
          "type": "string"
        },
        {
          "indexed": false,
          "internalType": "string",
          "name": "huddleId",
          "type": "string"
        },
        {
          "indexed": true,
          "internalType": "address",
          "name": "host",
          "type": "address"
        }
      ],
      "name": "MeetingCreated",
      "type": "event"
    },
    {
      "anonymous": false,
      "inputs": [
        {
          "indexed": true,
          "internalType": "uint256",
          "name": "meetingId",
          "type": "uint256"
        },
        {
          "indexed": false,
          "internalType": "string",
          "name": "cid",
          "type": "string"
        }
      ],
      "name": "MeetingFinalized",
      "type": "event"
    },
    {
      "anonymous": false,
      "inputs": [
        {
          "indexed": true,
          "internalType": "address",
          "name": "previousOwner",
          "type": "address"
        },
        {
          "indexed": true,
          "internalType": "address",
          "name": "newOwner",
          "type": "address"
        }
      ],
      "name": "OwnershipTransferred",
      "type": "event"
    },
    {
      "anonymous": false,
      "inputs": [
        {
          "indexed": true,
          "internalType": "uint256",
          "name": "id",
          "type": "uint256"
        },
        {
          "indexed": false,
          "internalType": "string",
          "name": "description",
          "type": "string"
        },
        {
          "indexed": true,
          "internalType": "address",
          "name": "creator",
          "type": "address"
        }
      ],
      "name": "ProposalCreated",
      "type": "event"
    },
    {
      "anonymous": false,
      "inputs": [
        {
          "indexed": true,
          "internalType": "uint256",
          "name": "meetingId",
          "type": "uint256"
        },
        {
          "indexed": true,
          "internalType": "address",
          "name": "user",
          "type": "address"
        }
      ],
      "name": "UserJoined",
      "type": "event"
    },
    {
      "anonymous": false,
      "inputs": [
        {
          "indexed": true,
          "internalType": "uint256",
          "name": "proposalId",
          "type": "uint256"
        },
        {
          "indexed": true,
          "internalType": "address",
          "name": "voter",
          "type": "address"
        },
        {
          "indexed": false,
          "internalType": "bool",
          "name": "support",
          "type": "bool"
        }
      ],
      "name": "VoteCasted",
      "type": "event"
    },
    {
      "inputs": [
        {
          "internalType": "uint256",
          "name": "",
          "type": "uint256"
        }
      ],
      "name": "allUsers",
      "outputs": [
        {
          "internalType": "address",
          "name": "",
          "type": "address"
        }
      ],
      "stateMutability": "view",
      "type": "function"
    },
    {
      "inputs": [
        {
          "internalType": "string",
          "name": "_title",
          "type": "string"
        },
        {
          "internalType": "string",
          "name": "_huddleId",
          "type": "string"
        }
      ],
      "name": "createMeeting",
      "outputs": [],
      "stateMutability": "nonpayable",
      "type": "function"
    },
    {
      "inputs": [
        {
          "internalType": "string",
          "name": "_description",
          "type": "string"
        },
        {
          "internalType": "uint256",
          "name": "_duration",
          "type": "uint256"
        }
      ],
      "name": "createProposal",
      "outputs": [],
      "stateMutability": "nonpayable",
      "type": "function"
    },
    {
      "inputs": [
        {
          "internalType": "uint256",
          "name": "_meetingId",
          "type": "uint256"
        },
        {
          "internalType": "string",
          "name": "_cid",
          "type": "string"
        }
      ],
      "name": "finalizeMeeting",
      "outputs": [],
      "stateMutability": "nonpayable",
      "type": "function"
    },
    {
      "inputs": [],
      "name": "getAllUsers",
      "outputs": [
        {
          "internalType": "address[]",
          "name": "",
          "type": "address[]"
        }
      ],
      "stateMutability": "view",
      "type": "function"
    },
    {
      "inputs": [
        {
          "internalType": "uint256",
          "name": "",
          "type": "uint256"
        },
        {
          "internalType": "address",
          "name": "",
          "type": "address"
        }
      ],
      "name": "hasVoted",
      "outputs": [
        {
          "internalType": "bool",
          "name": "",
          "type": "bool"
        }
      ],
      "stateMutability": "view",
      "type": "function"
    },
    {
      "inputs": [
        {
          "internalType": "uint256",
          "name": "",
          "type": "uint256"
        },
        {
          "internalType": "address",
          "name": "",
          "type": "address"
        }
      ],
      "name": "isParticipant",
      "outputs": [
        {
          "internalType": "bool",
          "name": "",
          "type": "bool"
        }
      ],
      "stateMutability": "view",
      "type": "function"
    },
    {
      "inputs": [
        {
          "internalType": "uint256",
          "name": "_meetingId",
          "type": "uint256"
        }
      ],
      "name": "joinMeeting",
      "outputs": [],
      "stateMutability": "nonpayable",
      "type": "function"
    },
    {
      "inputs": [],
      "name": "meetingCount",
      "outputs": [
        {
          "internalType": "uint256",
          "name": "",
          "type": "uint256"
        }
      ],
      "stateMutability": "view",
      "type": "function"
    },
    {
      "inputs": [
        {
          "internalType": "uint256",
          "name": "",
          "type": "uint256"
        }
      ],
      "name": "meetings",
      "outputs": [
        {
          "internalType": "uint256",
          "name": "id",
          "type": "uint256"
        },
        {
          "internalType": "string",
          "name": "title",
          "type": "string"
        },
        {
          "internalType": "string",
          "name": "huddleId",
          "type": "string"
        },
        {
          "internalType": "address",
          "name": "host",
          "type": "address"
        },
        {
          "internalType": "uint256",
          "name": "createdTime",
          "type": "uint256"
        },
        {
          "internalType": "uint256",
          "name": "endTime",
          "type": "uint256"
        },
        {
          "internalType": "string",
          "name": "recordingCID",
          "type": "string"
        },
        {
          "internalType": "bool",
          "name": "isActive",
          "type": "bool"
        }
      ],
      "stateMutability": "view",
      "type": "function"
    },
    {
      "inputs": [],
      "name": "nftContract",
      "outputs": [
        {
          "internalType": "contract SyNoxNFT",
          "name": "",
          "type": "address"
        }
      ],
      "stateMutability": "view",
      "type": "function"
    },
    {
      "inputs": [],
      "name": "owner",
      "outputs": [
        {
          "internalType": "address",
          "name": "",
          "type": "address"
        }
      ],
      "stateMutability": "view",
      "type": "function"
    },
    {
      "inputs": [],
      "name": "proposalCount",
      "outputs": [
        {
          "internalType": "uint256",
          "name": "",
          "type": "uint256"
        }
      ],
      "stateMutability": "view",
      "type": "function"
    },
    {
      "inputs": [
        {
          "internalType": "uint256",
          "name": "",
          "type": "uint256"
        }
      ],
      "name": "proposals",
      "outputs": [
        {
          "internalType": "uint256",
          "name": "id",
          "type": "uint256"
        },
        {
          "internalType": "string",
          "name": "description",
          "type": "string"
        },
        {
          "internalType": "uint256",
          "name": "voteFor",
          "type": "uint256"
        },
        {
          "internalType": "uint256",
          "name": "voteAgainst",
          "type": "uint256"
        },
        {
          "internalType": "uint256",
          "name": "deadline",
          "type": "uint256"
        },
        {
          "internalType": "bool",
          "name": "executed",
          "type": "bool"
        },
        {
          "internalType": "address",
          "name": "creator",
          "type": "address"
        }
      ],
      "stateMutability": "view",
      "type": "function"
    },
    {
      "inputs": [],
      "name": "renounceOwnership",
      "outputs": [],
      "stateMutability": "nonpayable",
      "type": "function"
    },
    {
      "inputs": [
        {
          "internalType": "address",
          "name": "newOwner",
          "type": "address"
        }
      ],
      "name": "transferOwnership",
      "outputs": [],
      "stateMutability": "nonpayable",
      "type": "function"
    },
    {
      "inputs": [
        {
          "internalType": "address",
          "name": "",
          "type": "address"
        }
      ],
      "name": "userExists",
      "outputs": [
        {
          "internalType": "bool",
          "name": "",
          "type": "bool"
        }
      ],
      "stateMutability": "view",
      "type": "function"
    },
    {
      "inputs": [
        {
          "internalType": "uint256",
          "name": "_meetingId",
          "type": "uint256"
        },
        {
          "internalType": "string",
          "name": "_cid",
          "type": "string"
        }
      ],
      "name": "verifyMeetingData",
      "outputs": [
        {
          "internalType": "bool",
          "name": "",
          "type": "bool"
        }
      ],
      "stateMutability": "view",
      "type": "function"
    },
    {
      "inputs": [
        {
          "internalType": "uint256",
          "name": "_proposalId",
          "type": "uint256"
        },
        {
          "internalType": "bool",
          "name": "_support",
          "type": "bool"
        }
      ],
      "name": "vote",
      "outputs": [],
      "stateMutability": "nonpayable",
      "type": "function"
    }
  ],
  "bytecode": "0x608060405234801561001057600080fd5b5060405161181638038061181683398101604081905261002f916100d4565b338061005557604051631e4fbdf760e01b81526000600482015260240160405180910390fd5b61005e81610084565b50600180546001600160a01b0319166001600160a01b0392909216919091179055610104565b600080546001600160a01b038381166001600160a01b0319831681178455604051919092169283917f8be0079c531659141344cd1fd0a4f28419497f9722a3daafe3b4186f6b6457e09190a35050565b6000602082840312156100e657600080fd5b81516001600160a01b03811681146100fd57600080fd5b9392505050565b611703806101136000396000f3fe608060405234801561001057600080fd5b50600436106101215760003560e01c80638460168a116100ad578063c9d27afe11610071578063c9d27afe146102c3578063d56d229d146102d6578063da35c664146102e9578063e2842d79146102f2578063f2fde38b1461030757600080fd5b80638460168a1461023a5780638da5cb5b1461026157806392258ea114610286578063969aa28214610299578063a2bdedf4146102b057600080fd5b80633e84279a116100f45780633e84279a146101b057806343859632146101c3578063459f532f146101f1578063715018a614610204578063758d9b891461020c57600080fd5b8063013cf08b146101265780630e666e491461015557806312389c7e1461018857806335facf781461019b575b600080fd5b610139610134366004611042565b61031a565b60405161014c97969594939291906110ab565b60405180910390f35b610178610163366004611115565b60096020526000908152604090205460ff1681565b604051901515815260200161014c565b6101786101963660046111da565b6103eb565b6101ae6101a9366004611221565b610453565b005b6101ae6101be366004611266565b6105c8565b6101786101d13660046112c0565b600660209081526000928352604080842090915290825290205460ff1681565b6101ae6101ff3660046111da565b610680565b6101ae6108b1565b61017861021a3660046112c0565b600760209081526000928352604080842090915290825290205460ff1681565b61024d610248366004611042565b6108c5565b60405161014c9897969594939291906112ec565b6000546001600160a01b03165b6040516001600160a01b03909116815260200161014c565b6101ae610294366004611042565b610ab0565b6102a260025481565b60405190815260200161014c565b61026e6102be366004611042565b610c31565b6101ae6102d1366004611363565b610c5b565b60015461026e906001600160a01b031681565b6102a260035481565b6102fa610e9e565b60405161014c9190611398565b6101ae610315366004611115565b610f00565b6005602052600090815260409020805460018201805491929161033c906113e5565b80601f0160208091040260200160405190810160405280929190818152602001828054610368906113e5565b80156103b55780601f1061038a576101008083540402835291602001916103b5565b820191906000526020600020905b81548152906001019060200180831161039857829003601f168201915b505050506002830154600384015460048501546005909501549394919390925060ff81169061010090046001600160a01b031687565b6000816040516020016103fe919061141f565b60408051601f19818403018152828252805160209182012060008781526004835292909220919261043392600601910161143b565b604051602081830303815290604052805190602001201490505b92915050565b6001546040516370a0823160e01b81523360048201526000916001600160a01b0316906370a0823190602401602060405180830381865afa15801561049c573d6000803e3d6000fd5b505050506040513d601f19601f820116820180604052508101906104c091906114b1565b116105125760405162461bcd60e51b815260206004820152601860248201527f4d75737420686f6c64204e465420746f2070726f706f7365000000000000000060448201526064015b60405180910390fd5b6003805460009182610523836114e0565b909155506000818152600560205260409020818155909150600181016105498582611548565b5060006002820181905560038201556105628342611608565b60048201556005810180546001600160a81b03191633610100810260ff19169190911790915560405183907fc8c078bfee58e5822588f08b4509ed1eb5058e03f666cca84dd2d44bf5c288a8906105ba90889061161b565b60405180910390a350505050565b60028054600091826105d9836114e0565b909155506000818152600460205260409020818155909150600181016105ff8582611548565b506002810161060e8482611548565b506003810180546001600160a01b0319163390811790915542600483015560078201805460ff1916600117905561064490610f3e565b336001600160a01b0316827fe6fdd830aa717fac4d0ff0769e2103b1540c5b14e352cabf8a6ce1cb37a8e40f86866040516105ba92919061162e565b60025482106106c65760405162461bcd60e51b8152602060048201526012602482015271125b9d985b1a59081b59595d1a5b99c8125160721b6044820152606401610509565b600082815260046020526040902060038101546001600160a01b031633146107295760405162461bcd60e51b81526020600482015260166024820152754f6e6c7920686f73742063616e2066696e616c697a6560501b6044820152606401610509565b600781015460ff166107715760405162461bcd60e51b8152602060048201526011602482015270105b1c9958591e48199a5b985b1a5e9959607a1b6044820152606401610509565b60078101805460ff19169055426005820155600681016107918382611548565b5060005b60088201548110156108735760008260080182815481106107b8576107b861165c565b600091825260209182902001546001546040516001600160a01b03928316945091169163278c32de9184916107ef91899101611672565b6040516020818303038152906040526040518363ffffffff1660e01b815260040161081b9291906116a1565b6020604051808303816000875af115801561083a573d6000803e3d6000fd5b505050506040513d601f19601f8201168201806040525081019061085e91906114b1565b5050808061086b906114e0565b915050610795565b50827ffcfa2f8fa9a295fdc2136921c61c28ca9498f9f19e9b11d582b1ac03d009d737836040516108a4919061161b565b60405180910390a2505050565b6108b9610fc5565b6108c36000610ff2565b565b600460205260009081526040902080546001820180549192916108e7906113e5565b80601f0160208091040260200160405190810160405280929190818152602001828054610913906113e5565b80156109605780601f1061093557610100808354040283529160200191610960565b820191906000526020600020905b81548152906001019060200180831161094357829003601f168201915b505050505090806002018054610975906113e5565b80601f01602080910402602001604051908101604052809291908181526020018280546109a1906113e5565b80156109ee5780601f106109c3576101008083540402835291602001916109ee565b820191906000526020600020905b8154815290600101906020018083116109d157829003601f168201915b50505060038401546004850154600586015460068701805496976001600160a01b039094169692955090935090610a24906113e5565b80601f0160208091040260200160405190810160405280929190818152602001828054610a50906113e5565b8015610a9d5780601f10610a7257610100808354040283529160200191610a9d565b820191906000526020600020905b815481529060010190602001808311610a8057829003601f168201915b5050506007909301549192505060ff1688565b6002548110610af65760405162461bcd60e51b8152602060048201526012602482015271125b9d985b1a59081b59595d1a5b99c8125160721b6044820152606401610509565b6000818152600460205260409020600781015460ff16610b4d5760405162461bcd60e51b81526020600482015260126024820152714d656574696e67206e6f742061637469766560701b6044820152606401610509565b600082815260076020908152604080832033845290915290205460ff1615610ba85760405162461bcd60e51b815260206004820152600e60248201526d105b1c9958591e481a9bda5b995960921b6044820152606401610509565b600881018054600181810183556000928352602080842090920180546001600160a01b0319163390811790915585845260078352604080852082865290935291909220805460ff1916909217909155610c0090610f3e565b604051339083907f6a5f716eff9d9b77c04378575633c0f6784ea8d1a0b7cc011d723b4022decd5790600090a35050565b60088181548110610c4157600080fd5b6000918252602090912001546001600160a01b0316905081565b6003548210610ca25760405162461bcd60e51b8152602060048201526013602482015272125b9d985b1a59081c1c9bdc1bdcd85b081251606a1b6044820152606401610509565b600082815260056020526040902060048101544210610cf95760405162461bcd60e51b8152602060048201526013602482015272159bdd1a5b99c81c195c9a5bd908195b991959606a1b6044820152606401610509565b600083815260066020908152604080832033845290915290205460ff1615610d535760405162461bcd60e51b815260206004820152600d60248201526c105b1c9958591e481d9bdd1959609a1b6044820152606401610509565b6001546040516370a0823160e01b81523360048201526000916001600160a01b0316906370a0823190602401602060405180830381865afa158015610d9c573d6000803e3d6000fd5b505050506040513d601f19601f82011682018060405250810190610dc091906114b1565b11610e055760405162461bcd60e51b81526020600482015260156024820152744d75737420686f6c64204e465420746f20766f746560581b6044820152606401610509565b8115610e2757600281018054906000610e1d836114e0565b9190505550610e3f565b600381018054906000610e39836114e0565b91905055505b60008381526006602090815260408083203380855290835292819020805460ff1916600117905551841515815285917f5aaa9aad7433112662b9e5ae23b96ed62b00035f413ab908c55607284e0804e2910160405180910390a3505050565b60606008805480602002602001604051908101604052809291908181526020018280548015610ef657602002820191906000526020600020905b81546001600160a01b03168152600190910190602001808311610ed8575b5050505050905090565b610f08610fc5565b6001600160a01b038116610f3257604051631e4fbdf760e01b815260006004820152602401610509565b610f3b81610ff2565b50565b6001600160a01b03811660009081526009602052604090205460ff16610f3b576008805460018181019092557ff3f7a9fe364faab93b216da50a3214154f22a0a2b415b23a84c8169e8b636ee30180546001600160a01b0384166001600160a01b031990911681179091556000908152600960205260409020805460ff1916909117905550565b6000546001600160a01b031633146108c35760405163118cdaa760e01b8152336004820152602401610509565b600080546001600160a01b038381166001600160a01b0319831681178455604051919092169283917f8be0079c531659141344cd1fd0a4f28419497f9722a3daafe3b4186f6b6457e09190a35050565b60006020828403121561105457600080fd5b5035919050565b60005b8381101561107657818101518382015260200161105e565b50506000910152565b6000815180845261109781602086016020860161105b565b601f01601f19169290920160200192915050565b87815260e0602082015260006110c460e083018961107f565b60408301979097525060608101949094526080840192909252151560a08301526001600160a01b031660c09091015292915050565b80356001600160a01b038116811461111057600080fd5b919050565b60006020828403121561112757600080fd5b611130826110f9565b9392505050565b634e487b7160e01b600052604160045260246000fd5b600082601f83011261115e57600080fd5b813567ffffffffffffffff8082111561117957611179611137565b604051601f8301601f19908116603f011681019082821181831017156111a1576111a1611137565b816040528381528660208588010111156111ba57600080fd5b836020870160208301376000602085830101528094505050505092915050565b600080604083850312156111ed57600080fd5b82359150602083013567ffffffffffffffff81111561120b57600080fd5b6112178582860161114d565b9150509250929050565b6000806040838503121561123457600080fd5b823567ffffffffffffffff81111561124b57600080fd5b6112578582860161114d565b95602094909401359450505050565b6000806040838503121561127957600080fd5b823567ffffffffffffffff8082111561129157600080fd5b61129d8683870161114d565b935060208501359150808211156112b357600080fd5b506112178582860161114d565b600080604083850312156112d357600080fd5b823591506112e3602084016110f9565b90509250929050565b60006101008a83528060208401526113068184018b61107f565b9050828103604084015261131a818a61107f565b6001600160a01b03891660608501526080840188905260a0840187905283810360c0850152905061134b818661107f565b91505082151560e08301529998505050505050505050565b6000806040838503121561137657600080fd5b823591506020830135801515811461138d57600080fd5b809150509250929050565b6020808252825182820181905260009190848201906040850190845b818110156113d95783516001600160a01b0316835292840192918401916001016113b4565b50909695505050505050565b600181811c908216806113f957607f821691505b60208210810361141957634e487b7160e01b600052602260045260246000fd5b50919050565b6000825161143181846020870161105b565b9190910192915050565b6000808354611449816113e5565b600182811680156114615760018114611476576114a5565b60ff19841687528215158302870194506114a5565b8760005260208060002060005b8581101561149c5781548a820152908401908201611483565b50505082870194505b50929695505050505050565b6000602082840312156114c357600080fd5b5051919050565b634e487b7160e01b600052601160045260246000fd5b6000600182016114f2576114f26114ca565b5060010190565b601f82111561154357600081815260208120601f850160051c810160208610156115205750805b601f850160051c820191505b8181101561153f5782815560010161152c565b5050505b505050565b815167ffffffffffffffff81111561156257611562611137565b6115768161157084546113e5565b846114f9565b602080601f8311600181146115ab57600084156115935750858301515b600019600386901b1c1916600185901b17855561153f565b600085815260208120601f198616915b828110156115da578886015182559484019460019091019084016115bb565b50858210156115f85787850151600019600388901b60f8161c191681555b5050505050600190811b01905550565b8082018082111561044d5761044d6114ca565b602081526000611130602083018461107f565b604081526000611641604083018561107f565b8281036020840152611653818561107f565b95945050505050565b634e487b7160e01b600052603260045260246000fd5b66697066733a2f2f60c81b81526000825161169481600785016020870161105b565b9190910160070192915050565b6001600160a01b03831681526040602082018190526000906116c59083018461107f565b94935050505056fea2646970667358221220833b269ba8b55d0f93bf09a868936dc06be0967a745bc4f0fb27bb228db365b764736f6c63430008140033",
  "linkReferences": {},
  "deployedLinkReferences": {}
}