{
  "_format": "hh-sol-artifact-1",
  "contractName": "SyNoxNFT",
  "sourceName": "contracts/SyNoxNFT.sol",
  "abi": [
    {
      "inputs": [],
      "stateMutability": "nonpayable",
      "type": "constructor"
    },
    {
      "inputs": [
        {
          "internalType": "address",
          "name": "sender",
          "type": "address"
        },
        {
          "internalType": "uint256",
          "name": "tokenId",
          "type": "uint256"
        },
        {
          "internalType": "address",
          "name": "owner",
          "type": "address"
        }
      ],
      "name": "ERC721IncorrectOwner",
      "type": "error"
    },
    {
      "inputs": [
        {
          "internalType": "address",
          "name": "operator",
          "type": "address"
        },
        {
          "internalType": "uint256",
          "name": "tokenId",
          "type": "uint256"
        }
      ],
      "name": "ERC721InsufficientApproval",
      "type": "error"
    },
    {
      "inputs": [
        {
          "internalType": "address",
          "name": "approver",
          "type": "address"
        }
      ],
      "name": "ERC721InvalidApprover",
      "type": "error"
    },
    {
      "inputs": [
        {
          "internalType": "address",
          "name": "operator",
          "type": "address"
        }
      ],
      "name": "ERC721InvalidOperator",
      "type": "error"
    },
    {
      "inputs": [
        {
          "internalType": "address",
          "name": "owner",
          "type": "address"
        }
      ],
      "name": "ERC721InvalidOwner",
      "type": "error"
    },
    {
      "inputs": [
        {
          "internalType": "address",
          "name": "receiver",
          "type": "address"
        }
      ],
      "name": "ERC721InvalidReceiver",
      "type": "error"
    },
    {
      "inputs": [
        {
          "internalType": "address",
          "name": "sender",
          "type": "address"
        }
      ],
      "name": "ERC721InvalidSender",
      "type": "error"
    },
    {
      "inputs": [
        {
          "internalType": "uint256",
          "name": "tokenId",
          "type": "uint256"
        }
      ],
      "name": "ERC721NonexistentToken",
      "type": "error"
    },
    {
      "inputs": [
        {
          "internalType": "address",
          "name": "owner",
          "type": "address"
        }
      ],
      "name": "OwnableInvalidOwner",
      "type": "error"
    },
    {
      "inputs": [
        {
          "internalType": "address",
          "name": "account",
          "type": "address"
        }
      ],
      "name": "OwnableUnauthorizedAccount",
      "type": "error"
    },
    {
      "anonymous": false,
      "inputs": [
        {
          "indexed": true,
          "internalType": "address",
          "name": "owner",
          "type": "address"
        },
        {
          "indexed": true,
          "internalType": "address",
          "name": "approved",
          "type": "address"
        },
        {
          "indexed": true,
          "internalType": "uint256",
          "name": "tokenId",
          "type": "uint256"
        }
      ],
      "name": "Approval",
      "type": "event"
    },
    {
      "anonymous": false,
      "inputs": [
        {
          "indexed": true,
          "internalType": "address",
          "name": "owner",
          "type": "address"
        },
        {
          "indexed": true,
          "internalType": "address",
          "name": "operator",
          "type": "address"
        },
        {
          "indexed": false,
          "internalType": "bool",
          "name": "approved",
          "type": "bool"
        }
      ],
      "name": "ApprovalForAll",
      "type": "event"
    },
    {
      "anonymous": false,
      "inputs": [
        {
          "indexed": false,
          "internalType": "uint256",
          "name": "_fromTokenId",
          "type": "uint256"
        },
        {
          "indexed": false,
          "internalType": "uint256",
          "name": "_toTokenId",
          "type": "uint256"
        }
      ],
      "name": "BatchMetadataUpdate",
      "type": "event"
    },
    {
      "anonymous": false,
      "inputs": [
        {
          "indexed": false,
          "internalType": "uint256",
          "name": "_tokenId",
          "type": "uint256"
        }
      ],
      "name": "MetadataUpdate",
      "type": "event"
    },
    {
      "anonymous": false,
      "inputs": [
        {
          "indexed": true,
          "internalType": "address",
          "name": "previousOwner",
          "type": "address"
        },
        {
          "indexed": true,
          "internalType": "address",
          "name": "newOwner",
          "type": "address"
        }
      ],
      "name": "OwnershipTransferred",
      "type": "event"
    },
    {
      "anonymous": false,
      "inputs": [
        {
          "indexed": true,
          "internalType": "address",
          "name": "from",
          "type": "address"
        },
        {
          "indexed": true,
          "internalType": "address",
          "name": "to",
          "type": "address"
        },
        {
          "indexed": true,
          "internalType": "uint256",
          "name": "tokenId",
          "type": "uint256"
        }
      ],
      "name": "Transfer",
      "type": "event"
    },
    {
      "inputs": [
        {
          "internalType": "address",
          "name": "to",
          "type": "address"
        },
        {
          "internalType": "uint256",
          "name": "tokenId",
          "type": "uint256"
        }
      ],
      "name": "approve",
      "outputs": [],
      "stateMutability": "nonpayable",
      "type": "function"
    },
    {
      "inputs": [
        {
          "internalType": "address",
          "name": "owner",
          "type": "address"
        }
      ],
      "name": "balanceOf",
      "outputs": [
        {
          "internalType": "uint256",
          "name": "",
          "type": "uint256"
        }
      ],
      "stateMutability": "view",
      "type": "function"
    },
    {
      "inputs": [],
      "name": "factoryAddress",
      "outputs": [
        {
          "internalType": "address",
          "name": "",
          "type": "address"
        }
      ],
      "stateMutability": "view",
      "type": "function"
    },
    {
      "inputs": [
        {
          "internalType": "uint256",
          "name": "tokenId",
          "type": "uint256"
        }
      ],
      "name": "getApproved",
      "outputs": [
        {
          "internalType": "address",
          "name": "",
          "type": "address"
        }
      ],
      "stateMutability": "view",
      "type": "function"
    },
    {
      "inputs": [
        {
          "internalType": "address",
          "name": "owner",
          "type": "address"
        },
        {
          "internalType": "address",
          "name": "operator",
          "type": "address"
        }
      ],
      "name": "isApprovedForAll",
      "outputs": [
        {
          "internalType": "bool",
          "name": "",
          "type": "bool"
        }
      ],
      "stateMutability": "view",
      "type": "function"
    },
    {
      "inputs": [
        {
          "internalType": "address",
          "name": "recipient",
          "type": "address"
        },
        {
          "internalType": "string",
          "name": "tokenURI",
          "type": "string"
        }
      ],
      "name": "mintAttendance",
      "outputs": [
        {
          "internalType": "uint256",
          "name": "",
          "type": "uint256"
        }
      ],
      "stateMutability": "nonpayable",
      "type": "function"
    },
    {
      "inputs": [],
      "name": "name",
      "outputs": [
        {
          "internalType": "string",
          "name": "",
          "type": "string"
        }
      ],
      "stateMutability": "view",
      "type": "function"
    },
    {
      "inputs": [],
      "name": "owner",
      "outputs": [
        {
          "internalType": "address",
          "name": "",
          "type": "address"
        }
      ],
      "stateMutability": "view",
      "type": "function"
    },
    {
      "inputs": [
        {
          "internalType": "uint256",
          "name": "tokenId",
          "type": "uint256"
        }
      ],
      "name": "ownerOf",
      "outputs": [
        {
          "internalType": "address",
          "name": "",
          "type": "address"
        }
      ],
      "stateMutability": "view",
      "type": "function"
    },
    {
      "inputs": [],
      "name": "renounceOwnership",
      "outputs": [],
      "stateMutability": "nonpayable",
      "type": "function"
    },
    {
      "inputs": [
        {
          "internalType": "address",
          "name": "from",
          "type": "address"
        },
        {
          "internalType": "address",
          "name": "to",
          "type": "address"
        },
        {
          "internalType": "uint256",
          "name": "tokenId",
          "type": "uint256"
        }
      ],
      "name": "safeTransferFrom",
      "outputs": [],
      "stateMutability": "nonpayable",
      "type": "function"
    },
    {
      "inputs": [
        {
          "internalType": "address",
          "name": "from",
          "type": "address"
        },
        {
          "internalType": "address",
          "name": "to",
          "type": "address"
        },
        {
          "internalType": "uint256",
          "name": "tokenId",
          "type": "uint256"
        },
        {
          "internalType": "bytes",
          "name": "data",
          "type": "bytes"
        }
      ],
      "name": "safeTransferFrom",
      "outputs": [],
      "stateMutability": "nonpayable",
      "type": "function"
    },
    {
      "inputs": [
        {
          "internalType": "address",
          "name": "operator",
          "type": "address"
        },
        {
          "internalType": "bool",
          "name": "approved",
          "type": "bool"
        }
      ],
      "name": "setApprovalForAll",
      "outputs": [],
      "stateMutability": "nonpayable",
      "type": "function"
    },
    {
      "inputs": [
        {
          "internalType": "address",
          "name": "_factory",
          "type": "address"
        }
      ],
      "name": "setFactory",
      "outputs": [],
      "stateMutability": "nonpayable",
      "type": "function"
    },
    {
      "inputs": [
        {
          "internalType": "bytes4",
          "name": "interfaceId",
          "type": "bytes4"
        }
      ],
      "name": "supportsInterface",
      "outputs": [
        {
          "internalType": "bool",
          "name": "",
          "type": "bool"
        }
      ],
      "stateMutability": "view",
      "type": "function"
    },
    {
      "inputs": [],
      "name": "symbol",
      "outputs": [
        {
          "internalType": "string",
          "name": "",
          "type": "string"
        }
      ],
      "stateMutability": "view",
      "type": "function"
    },
    {
      "inputs": [
        {
          "internalType": "uint256",
          "name": "tokenId",
          "type": "uint256"
        }
      ],
      "name": "tokenURI",
      "outputs": [
        {
          "internalType": "string",
          "name": "",
          "type": "string"
        }
      ],
      "stateMutability": "view",
      "type": "function"
    },
    {
      "inputs": [
        {
          "internalType": "address",
          "name": "",
          "type": "address"
        }
      ],
      "name": "totalReputation",
      "outputs": [
        {
          "internalType": "uint256",
          "name": "",
          "type": "uint256"
        }
      ],
      "stateMutability": "view",
      "type": "function"
    },
    {
      "inputs": [
        {
          "internalType": "address",
          "name": "from",
          "type": "address"
        },
        {
          "internalType": "address",
          "name": "to",
          "type": "address"
        },
        {
          "internalType": "uint256",
          "name": "tokenId",
          "type": "uint256"
        }
      ],
      "name": "transferFrom",
      "outputs": [],
      "stateMutability": "nonpayable",
      "type": "function"
    },
    {
      "inputs": [
        {
          "internalType": "address",
          "name": "newOwner",
          "type": "address"
        }
      ],
      "name": "transferOwnership",
      "outputs": [],
      "stateMutability": "nonpayable",
      "type": "function"
    }
  ],
  "bytecode": "0x60806040523480156200001157600080fd5b50336040518060400160405280601081526020016f53794e6f7820417474656e64616e636560801b8152506040518060400160405280600381526020016253594160e81b8152508160009081620000699190620001b3565b506001620000788282620001b3565b5050506001600160a01b038116620000aa57604051631e4fbdf760e01b81526000600482015260240160405180910390fd5b620000b581620000bc565b506200027f565b600780546001600160a01b038381166001600160a01b0319831681179093556040519116919082907f8be0079c531659141344cd1fd0a4f28419497f9722a3daafe3b4186f6b6457e090600090a35050565b634e487b7160e01b600052604160045260246000fd5b600181811c908216806200013957607f821691505b6020821081036200015a57634e487b7160e01b600052602260045260246000fd5b50919050565b601f821115620001ae57600081815260208120601f850160051c81016020861015620001895750805b601f850160051c820191505b81811015620001aa5782815560010162000195565b5050505b505050565b81516001600160401b03811115620001cf57620001cf6200010e565b620001e781620001e0845462000124565b8462000160565b602080601f8311600181146200021f5760008415620002065750858301515b600019600386901b1c1916600185901b178555620001aa565b600085815260208120601f198616915b8281101562000250578886015182559484019460019091019084016200022f565b50858210156200026f5787850151600019600388901b60f8161c191681555b5050505050600190811b01905550565b61153b806200028f6000396000f3fe608060405234801561001057600080fd5b506004361061012c5760003560e01c806370a08231116100ad578063a22cb46511610071578063a22cb46514610282578063b88d4fde14610295578063c87b56dd146102a8578063e985e9c5146102bb578063f2fde38b146102ce57600080fd5b806370a082311461023b578063715018a61461024e5780638da5cb5b1461025657806395d89b4114610267578063966dae0e1461026f57600080fd5b8063278c32de116100f4578063278c32de146101c157806342842e0e146101e25780634c56c9c6146101f55780635bb47808146102155780636352211e1461022857600080fd5b806301ffc9a71461013157806306fdde0314610159578063081812fc1461016e578063095ea7b31461019957806323b872dd146101ae575b600080fd5b61014461013f366004610feb565b6102e1565b60405190151581526020015b60405180910390f35b61016161030c565b6040516101509190611058565b61018161017c36600461106b565b61039e565b6040516001600160a01b039091168152602001610150565b6101ac6101a73660046110a0565b6103c7565b005b6101ac6101bc3660046110ca565b6103d6565b6101d46101cf366004611192565b610466565b604051908152602001610150565b6101ac6101f03660046110ca565b61053b565b6101d46102033660046111f4565b600a6020526000908152604090205481565b6101ac6102233660046111f4565b61055b565b61018161023636600461106b565b610585565b6101d46102493660046111f4565b610590565b6101ac6105d8565b6007546001600160a01b0316610181565b6101616105ec565b600954610181906001600160a01b031681565b6101ac61029036600461120f565b6105fb565b6101ac6102a336600461124b565b610606565b6101616102b636600461106b565b61061e565b6101446102c93660046112c7565b61072f565b6101ac6102dc3660046111f4565b61075d565b60006001600160e01b03198216632483248360e11b148061030657506103068261079b565b92915050565b60606000805461031b906112fa565b80601f0160208091040260200160405190810160405280929190818152602001828054610347906112fa565b80156103945780601f1061036957610100808354040283529160200191610394565b820191906000526020600020905b81548152906001019060200180831161037757829003601f168201915b5050505050905090565b60006103a9826107eb565b506000828152600460205260409020546001600160a01b0316610306565b6103d2828233610824565b5050565b6001600160a01b03821661040557604051633250574960e11b8152600060048201526024015b60405180910390fd5b6000610412838333610831565b9050836001600160a01b0316816001600160a01b031614610460576040516364283d7b60e01b81526001600160a01b03808616600483015260248201849052821660448201526064016103fc565b50505050565b6009546000906001600160a01b031633148061048c57506007546001600160a01b031633145b6104d85760405162461bcd60e51b815260206004820152601e60248201527f43616c6c6572206973206e6f7420666163746f7279206f72206f776e6572000060448201526064016103fc565b60088054600091826104e98361134a565b9190505590506104f9848261092a565b610503818461098f565b6001600160a01b0384166000908152600a60208190526040822080549192909161052e908490611363565b9091555090949350505050565b61055683838360405180602001604052806000815250610606565b505050565b6105636109df565b600980546001600160a01b0319166001600160a01b0392909216919091179055565b6000610306826107eb565b60006001600160a01b0382166105bc576040516322718ad960e21b8152600060048201526024016103fc565b506001600160a01b031660009081526003602052604090205490565b6105e06109df565b6105ea6000610a0c565b565b60606001805461031b906112fa565b6103d2338383610a5e565b6106118484846103d6565b6104603385858585610afd565b6060610629826107eb565b5060008281526006602052604081208054610643906112fa565b80601f016020809104026020016040519081016040528092919081815260200182805461066f906112fa565b80156106bc5780601f10610691576101008083540402835291602001916106bc565b820191906000526020600020905b81548152906001019060200180831161069f57829003601f168201915b5050505050905060006106da60408051602081019091526000815290565b905080516000036106ec575092915050565b81511561071e578082604051602001610706929190611376565b60405160208183030381529060405292505050919050565b61072784610c28565b949350505050565b6001600160a01b03918216600090815260056020908152604080832093909416825291909152205460ff1690565b6107656109df565b6001600160a01b03811661078f57604051631e4fbdf760e01b8152600060048201526024016103fc565b61079881610a0c565b50565b60006001600160e01b031982166380ac58cd60e01b14806107cc57506001600160e01b03198216635b5e139f60e01b145b8061030657506301ffc9a760e01b6001600160e01b0319831614610306565b6000818152600260205260408120546001600160a01b03168061030657604051637e27328960e01b8152600481018490526024016103fc565b6105568383836001610c9d565b6000828152600260205260408120546001600160a01b039081169083161561085e5761085e818486610da3565b6001600160a01b0381161561089c5761087b600085600080610c9d565b6001600160a01b038116600090815260036020526040902080546000190190555b6001600160a01b038516156108cb576001600160a01b0385166000908152600360205260409020805460010190555b60008481526002602052604080822080546001600160a01b0319166001600160a01b0389811691821790925591518793918516917fddf252ad1be2c89b69c2b068fc378daa952ba7f163c4a11628f55a4df523b3ef91a4949350505050565b6001600160a01b03821661095457604051633250574960e11b8152600060048201526024016103fc565b600061096283836000610831565b90506001600160a01b03811615610556576040516339e3563760e11b8152600060048201526024016103fc565b60008281526006602052604090206109a782826113eb565b506040518281527ff8e1a15aba9398e019f0b49df1a4fde98ee17ae345cb5f6b5e2c27f5033e8ce79060200160405180910390a15050565b6007546001600160a01b031633146105ea5760405163118cdaa760e01b81523360048201526024016103fc565b600780546001600160a01b038381166001600160a01b0319831681179093556040519116919082907f8be0079c531659141344cd1fd0a4f28419497f9722a3daafe3b4186f6b6457e090600090a35050565b6001600160a01b038216610a9057604051630b61174360e31b81526001600160a01b03831660048201526024016103fc565b6001600160a01b03838116600081815260056020908152604080832094871680845294825291829020805460ff191686151590811790915591519182527f17307eab39ab6107e8899845ad3d59bd9653f200f220920489ca2b5937696c31910160405180910390a3505050565b6001600160a01b0383163b15610c2157604051630a85bd0160e11b81526001600160a01b0384169063150b7a0290610b3f9088908890879087906004016114ab565b6020604051808303816000875af1925050508015610b7a575060408051601f3d908101601f19168201909252610b77918101906114e8565b60015b610be3573d808015610ba8576040519150601f19603f3d011682016040523d82523d6000602084013e610bad565b606091505b508051600003610bdb57604051633250574960e11b81526001600160a01b03851660048201526024016103fc565b805160208201fd5b6001600160e01b03198116630a85bd0160e11b14610c1f57604051633250574960e11b81526001600160a01b03851660048201526024016103fc565b505b5050505050565b6060610c33826107eb565b506000610c4b60408051602081019091526000815290565b90506000815111610c6b5760405180602001604052806000815250610c96565b80610c7584610e07565b604051602001610c86929190611376565b6040516020818303038152906040525b9392505050565b8080610cb157506001600160a01b03821615155b15610d73576000610cc1846107eb565b90506001600160a01b03831615801590610ced5750826001600160a01b0316816001600160a01b031614155b8015610d005750610cfe818461072f565b155b15610d295760405163a9fbf51f60e01b81526001600160a01b03841660048201526024016103fc565b8115610d715783856001600160a01b0316826001600160a01b03167f8c5be1e5ebec7d5bd14f71427d1e84f3dd0314c0f7b2291e5b200ac8c7c3b92560405160405180910390a45b505b5050600090815260046020526040902080546001600160a01b0319166001600160a01b0392909216919091179055565b610dae838383610e9a565b610556576001600160a01b038316610ddc57604051637e27328960e01b8152600481018290526024016103fc565b60405163177e802f60e01b81526001600160a01b0383166004820152602481018290526044016103fc565b60606000610e1483610efd565b600101905060008167ffffffffffffffff811115610e3457610e34611106565b6040519080825280601f01601f191660200182016040528015610e5e576020820181803683370190505b5090508181016020015b600019016f181899199a1a9b1b9c1cb0b131b232b360811b600a86061a8153600a8504945084610e6857509392505050565b60006001600160a01b038316158015906107275750826001600160a01b0316846001600160a01b03161480610ed45750610ed4848461072f565b806107275750506000908152600460205260409020546001600160a01b03908116911614919050565b60008072184f03e93ff9f4daa797ed6e38ed64bf6a1f0160401b8310610f3c5772184f03e93ff9f4daa797ed6e38ed64bf6a1f0160401b830492506040015b6d04ee2d6d415b85acef81000000008310610f68576d04ee2d6d415b85acef8100000000830492506020015b662386f26fc100008310610f8657662386f26fc10000830492506010015b6305f5e1008310610f9e576305f5e100830492506008015b6127108310610fb257612710830492506004015b60648310610fc4576064830492506002015b600a83106103065760010192915050565b6001600160e01b03198116811461079857600080fd5b600060208284031215610ffd57600080fd5b8135610c9681610fd5565b60005b8381101561102357818101518382015260200161100b565b50506000910152565b60008151808452611044816020860160208601611008565b601f01601f19169290920160200192915050565b602081526000610c96602083018461102c565b60006020828403121561107d57600080fd5b5035919050565b80356001600160a01b038116811461109b57600080fd5b919050565b600080604083850312156110b357600080fd5b6110bc83611084565b946020939093013593505050565b6000806000606084860312156110df57600080fd5b6110e884611084565b92506110f660208501611084565b9150604084013590509250925092565b634e487b7160e01b600052604160045260246000fd5b600067ffffffffffffffff8084111561113757611137611106565b604051601f8501601f19908116603f0116810190828211818310171561115f5761115f611106565b8160405280935085815286868601111561117857600080fd5b858560208301376000602087830101525050509392505050565b600080604083850312156111a557600080fd5b6111ae83611084565b9150602083013567ffffffffffffffff8111156111ca57600080fd5b8301601f810185136111db57600080fd5b6111ea8582356020840161111c565b9150509250929050565b60006020828403121561120657600080fd5b610c9682611084565b6000806040838503121561122257600080fd5b61122b83611084565b91506020830135801515811461124057600080fd5b809150509250929050565b6000806000806080858703121561126157600080fd5b61126a85611084565b935061127860208601611084565b925060408501359150606085013567ffffffffffffffff81111561129b57600080fd5b8501601f810187136112ac57600080fd5b6112bb8782356020840161111c565b91505092959194509250565b600080604083850312156112da57600080fd5b6112e383611084565b91506112f160208401611084565b90509250929050565b600181811c9082168061130e57607f821691505b60208210810361132e57634e487b7160e01b600052602260045260246000fd5b50919050565b634e487b7160e01b600052601160045260246000fd5b60006001820161135c5761135c611334565b5060010190565b8082018082111561030657610306611334565b60008351611388818460208801611008565b83519083019061139c818360208801611008565b01949350505050565b601f82111561055657600081815260208120601f850160051c810160208610156113cc5750805b601f850160051c820191505b81811015610c1f578281556001016113d8565b815167ffffffffffffffff81111561140557611405611106565b6114198161141384546112fa565b846113a5565b602080601f83116001811461144e57600084156114365750858301515b600019600386901b1c1916600185901b178555610c1f565b600085815260208120601f198616915b8281101561147d5788860151825594840194600190910190840161145e565b508582101561149b5787850151600019600388901b60f8161c191681555b5050505050600190811b01905550565b6001600160a01b03858116825284166020820152604081018390526080606082018190526000906114de9083018461102c565b9695505050505050565b6000602082840312156114fa57600080fd5b8151610c9681610fd556fea26469706673582212203c8d00a21a17c2e41c4d427c1852359af1e059b484d3646f109993a1c3f308d464736f6c63430008140033",
  "linkReferences": {},
  "deployedLinkReferences": {}
}